{
  "_format": "hh-sol-artifact-1",
  "contractName": "Marketplace",
  "sourceName": "contracts/Marketplace.sol",
  "abi": [
    {
      "inputs": [
        {
          "internalType": "address",
          "name": "_feeAccount",
          "type": "address"
        },
        {
          "internalType": "uint256",
          "name": "_feePercent",
          "type": "uint256"
        }
      ],
      "stateMutability": "nonpayable",
      "type": "constructor"
    },
    {
      "inputs": [],
      "name": "ReentrancyGuardReentrantCall",
      "type": "error"
    },
    {
      "anonymous": false,
      "inputs": [
        {
          "indexed": true,
          "internalType": "uint256",
          "name": "itemId",
          "type": "uint256"
        },
        {
          "indexed": true,
          "internalType": "address",
          "name": "bidder",
          "type": "address"
        },
        {
          "indexed": false,
          "internalType": "uint256",
          "name": "amount",
          "type": "uint256"
        }
      ],
      "name": "AuctionBid",
      "type": "event"
    },
    {
      "anonymous": false,
      "inputs": [
        {
          "indexed": false,
          "internalType": "uint256",
          "name": "itemId",
          "type": "uint256"
        },
        {
          "indexed": true,
          "internalType": "address",
          "name": "nft",
          "type": "address"
        },
        {
          "indexed": false,
          "internalType": "uint256",
          "name": "tokenId",
          "type": "uint256"
        },
        {
          "indexed": false,
          "internalType": "uint256",
          "name": "price",
          "type": "uint256"
        },
        {
          "indexed": true,
          "internalType": "address",
          "name": "seller",
          "type": "address"
        },
        {
          "indexed": true,
          "internalType": "address",
          "name": "buyer",
          "type": "address"
        }
      ],
      "name": "Bought",
      "type": "event"
    },
    {
      "anonymous": false,
      "inputs": [
        {
          "indexed": false,
          "internalType": "uint256",
          "name": "itemId",
          "type": "uint256"
        },
        {
          "indexed": true,
          "internalType": "address",
          "name": "nft",
          "type": "address"
        },
        {
          "indexed": false,
          "internalType": "uint256",
          "name": "tokenId",
          "type": "uint256"
        },
        {
          "indexed": true,
          "internalType": "address",
          "name": "seller",
          "type": "address"
        }
      ],
      "name": "Cancelled",
      "type": "event"
    },
    {
      "anonymous": false,
      "inputs": [
        {
          "indexed": true,
          "internalType": "uint256",
          "name": "itemId",
          "type": "uint256"
        },
        {
          "indexed": true,
          "internalType": "address",
          "name": "buyer",
          "type": "address"
        },
        {
          "indexed": false,
          "internalType": "uint256",
          "name": "amount",
          "type": "uint256"
        }
      ],
      "name": "OfferAccepted",
      "type": "event"
    },
    {
      "anonymous": false,
      "inputs": [
        {
          "indexed": true,
          "internalType": "uint256",
          "name": "itemId",
          "type": "uint256"
        },
        {
          "indexed": true,
          "internalType": "address",
          "name": "buyer",
          "type": "address"
        },
        {
          "indexed": false,
          "internalType": "uint256",
          "name": "amount",
          "type": "uint256"
        }
      ],
      "name": "OfferMade",
      "type": "event"
    },
    {
      "anonymous": false,
      "inputs": [
        {
          "indexed": false,
          "internalType": "uint256",
          "name": "itemId",
          "type": "uint256"
        },
        {
          "indexed": true,
          "internalType": "address",
          "name": "nft",
          "type": "address"
        },
        {
          "indexed": false,
          "internalType": "uint256",
          "name": "tokenId",
          "type": "uint256"
        },
        {
          "indexed": false,
          "internalType": "uint256",
          "name": "price",
          "type": "uint256"
        },
        {
          "indexed": true,
          "internalType": "address",
          "name": "seller",
          "type": "address"
        }
      ],
      "name": "Offered",
      "type": "event"
    },
    {
      "inputs": [
        {
          "internalType": "uint256",
          "name": "_itemId",
          "type": "uint256"
        },
        {
          "internalType": "uint256",
          "name": "_offerIndex",
          "type": "uint256"
        }
      ],
      "name": "acceptOffer",
      "outputs": [],
      "stateMutability": "nonpayable",
      "type": "function"
    },
    {
      "inputs": [
        {
          "internalType": "uint256",
          "name": "_itemId",
          "type": "uint256"
        }
      ],
      "name": "cancelItem",
      "outputs": [],
      "stateMutability": "nonpayable",
      "type": "function"
    },
    {
      "inputs": [],
      "name": "feeAccount",
      "outputs": [
        {
          "internalType": "address payable",
          "name": "",
          "type": "address"
        }
      ],
      "stateMutability": "view",
      "type": "function"
    },
    {
      "inputs": [],
      "name": "feePercent",
      "outputs": [
        {
          "internalType": "uint256",
          "name": "",
          "type": "uint256"
        }
      ],
      "stateMutability": "view",
      "type": "function"
    },
    {
      "inputs": [
        {
          "internalType": "uint256",
          "name": "_itemId",
          "type": "uint256"
        }
      ],
      "name": "finalizeAuction",
      "outputs": [],
      "stateMutability": "nonpayable",
      "type": "function"
    },
    {
      "inputs": [
        {
          "internalType": "uint256",
          "name": "_itemId",
          "type": "uint256"
        }
      ],
      "name": "getOffers",
      "outputs": [
        {
          "components": [
            {
              "internalType": "address payable",
              "name": "buyer",
              "type": "address"
            },
            {
              "internalType": "uint256",
              "name": "amount",
              "type": "uint256"
            },
            {
              "internalType": "bool",
              "name": "accepted",
              "type": "bool"
            }
          ],
          "internalType": "struct Marketplace.Offer[]",
          "name": "",
          "type": "tuple[]"
        }
      ],
      "stateMutability": "view",
      "type": "function"
    },
    {
      "inputs": [
        {
          "internalType": "uint256",
          "name": "_itemId",
          "type": "uint256"
        }
      ],
      "name": "getTotalPrice",
      "outputs": [
        {
          "internalType": "uint256",
          "name": "",
          "type": "uint256"
        }
      ],
      "stateMutability": "view",
      "type": "function"
    },
    {
      "inputs": [],
      "name": "itemCount",
      "outputs": [
        {
          "internalType": "uint256",
          "name": "",
          "type": "uint256"
        }
      ],
      "stateMutability": "view",
      "type": "function"
    },
    {
      "inputs": [
        {
          "internalType": "uint256",
          "name": "",
          "type": "uint256"
        }
      ],
      "name": "items",
      "outputs": [
        {
          "internalType": "uint256",
          "name": "itemId",
          "type": "uint256"
        },
        {
          "internalType": "contract IERC721",
          "name": "nft",
          "type": "address"
        },
        {
          "internalType": "uint256",
          "name": "tokenId",
          "type": "uint256"
        },
        {
          "internalType": "uint256",
          "name": "price",
          "type": "uint256"
        },
        {
          "internalType": "address payable",
          "name": "seller",
          "type": "address"
        },
        {
          "internalType": "bool",
          "name": "sold",
          "type": "bool"
        },
        {
          "internalType": "bool",
          "name": "isAuction",
          "type": "bool"
        },
        {
          "internalType": "uint256",
          "name": "endTime",
          "type": "uint256"
        },
        {
          "internalType": "address",
          "name": "highestBidder",
          "type": "address"
        },
        {
          "internalType": "uint256",
          "name": "highestBid",
          "type": "uint256"
        }
      ],
      "stateMutability": "view",
      "type": "function"
    },
    {
      "inputs": [
        {
          "internalType": "contract IERC721",
          "name": "_nft",
          "type": "address"
        },
        {
          "internalType": "uint256",
          "name": "_tokenId",
          "type": "uint256"
        },
        {
          "internalType": "uint256",
          "name": "_startPrice",
          "type": "uint256"
        },
        {
          "internalType": "uint256",
          "name": "_duration",
          "type": "uint256"
        }
      ],
      "name": "makeAuctionItem",
      "outputs": [],
      "stateMutability": "nonpayable",
      "type": "function"
    },
    {
      "inputs": [
        {
          "internalType": "contract IERC721",
          "name": "_nft",
          "type": "address"
        },
        {
          "internalType": "uint256",
          "name": "_tokenId",
          "type": "uint256"
        },
        {
          "internalType": "uint256",
          "name": "_price",
          "type": "uint256"
        }
      ],
      "name": "makeItem",
      "outputs": [],
      "stateMutability": "nonpayable",
      "type": "function"
    },
    {
      "inputs": [
        {
          "internalType": "uint256",
          "name": "_itemId",
          "type": "uint256"
        }
      ],
      "name": "makeOffer",
      "outputs": [],
      "stateMutability": "payable",
      "type": "function"
    },
    {
      "inputs": [
        {
          "internalType": "uint256",
          "name": "",
          "type": "uint256"
        },
        {
          "internalType": "uint256",
          "name": "",
          "type": "uint256"
        }
      ],
      "name": "offers",
      "outputs": [
        {
          "internalType": "address payable",
          "name": "buyer",
          "type": "address"
        },
        {
          "internalType": "uint256",
          "name": "amount",
          "type": "uint256"
        },
        {
          "internalType": "bool",
          "name": "accepted",
          "type": "bool"
        }
      ],
      "stateMutability": "view",
      "type": "function"
    },
    {
      "inputs": [
        {
          "internalType": "uint256",
          "name": "_itemId",
          "type": "uint256"
        }
      ],
      "name": "placeBid",
      "outputs": [],
      "stateMutability": "payable",
      "type": "function"
    },
    {
      "inputs": [
        {
          "internalType": "uint256",
          "name": "_itemId",
          "type": "uint256"
        }
      ],
      "name": "purchaseItem",
      "outputs": [],
      "stateMutability": "payable",
      "type": "function"
    }
  ],
  "bytecode": "0x60c060405234801561001057600080fd5b5060405161324d38038061324d83398181016040528101906100329190610185565b6001600081905550600073ffffffffffffffffffffffffffffffffffffffff168273ffffffffffffffffffffffffffffffffffffffff16036100a9576040517f08c379a00000000000000000000000000000000000000000000000000000000081526004016100a090610222565b60405180910390fd5b8173ffffffffffffffffffffffffffffffffffffffff1660808173ffffffffffffffffffffffffffffffffffffffff16815250508060a081815250505050610242565b600080fd5b600073ffffffffffffffffffffffffffffffffffffffff82169050919050565b600061011c826100f1565b9050919050565b61012c81610111565b811461013757600080fd5b50565b60008151905061014981610123565b92915050565b6000819050919050565b6101628161014f565b811461016d57600080fd5b50565b60008151905061017f81610159565b92915050565b6000806040838503121561019c5761019b6100ec565b5b60006101aa8582860161013a565b92505060206101bb85828601610170565b9150509250929050565b600082825260208201905092915050565b7f496e76616c696420666565206163636f756e7400000000000000000000000000600082015250565b600061020c6013836101c5565b9150610217826101d6565b602082019050919050565b6000602082019050818103600083015261023b816101ff565b9050919050565b60805160a051612fbc610291600039600081816106d1015281816108c80152818161109c0152611a7e0152600081816106a701528181610976015281816112eb0152611b340152612fbc6000f3fe6080604052600436106100e85760003560e01c80639a2f64741161008a578063d58846ee11610059578063d58846ee146102d6578063dfa49e6f146102ff578063e80838631461033c578063fa00afc714610365576100e8565b80639a2f64741461021b578063bfb231d214610237578063ca7dd3751461027d578063d38ea5bf146102ba576100e8565b80636bfb0d01116100c65780636bfb0d01146101805780637fd6f15c146101ab57806381257bd5146101d65780639979ef45146101ff576100e8565b80634d03a9a5146100ed57806351563f8e1461012c57806365e17c9d14610155575b600080fd5b3480156100f957600080fd5b50610114600480360381019061010f91906120eb565b61038e565b60405161012393929190612196565b60405180910390f35b34801561013857600080fd5b50610153600480360381019061014e91906121cd565b610402565b005b34801561016157600080fd5b5061016a6106a5565b60405161017791906121fa565b60405180910390f35b34801561018c57600080fd5b506101956106c9565b6040516101a29190612215565b60405180910390f35b3480156101b757600080fd5b506101c06106cf565b6040516101cd9190612215565b60405180910390f35b3480156101e257600080fd5b506101fd60048036038101906101f891906120eb565b6106f3565b005b610219600480360381019061021491906121cd565b610b19565b005b610235600480360381019061023091906121cd565b610d84565b005b34801561024357600080fd5b5061025e600480360381019061025991906121cd565b610fc8565b6040516102749a999897969594939291906122b0565b60405180910390f35b34801561028957600080fd5b506102a4600480360381019061029f91906121cd565b611096565b6040516102b19190612215565b60405180910390f35b6102d460048036038101906102cf91906121cd565b6110f9565b005b3480156102e257600080fd5b506102fd60048036038101906102f8919061238a565b6114d3565b005b34801561030b57600080fd5b50610326600480360381019061032191906121cd565b61185f565b604051610333919061250f565b60405180910390f35b34801561034857600080fd5b50610363600480360381019061035e91906121cd565b61194c565b005b34801561037157600080fd5b5061038c60048036038101906103879190612531565b611d22565b005b600360205281600052604060002081815481106103aa57600080fd5b9060005260206000209060030201600091509150508060000160009054906101000a900473ffffffffffffffffffffffffffffffffffffffff16908060010154908060020160009054906101000a900460ff16905083565b61040a612060565b600060026000838152602001908152602001600020905060008211801561043357506001548211155b610472576040517f08c379a0000000000000000000000000000000000000000000000000000000008152600401610469906125e1565b60405180910390fd5b8060040160009054906101000a900473ffffffffffffffffffffffffffffffffffffffff1673ffffffffffffffffffffffffffffffffffffffff163373ffffffffffffffffffffffffffffffffffffffff1614610504576040517f08c379a00000000000000000000000000000000000000000000000000000000081526004016104fb9061264d565b60405180910390fd5b8060040160149054906101000a900460ff1615610556576040517f08c379a000000000000000000000000000000000000000000000000000000000815260040161054d906126b9565b60405180910390fd5b60018160040160146101000a81548160ff0219169083151502179055508060010160009054906101000a900473ffffffffffffffffffffffffffffffffffffffff1673ffffffffffffffffffffffffffffffffffffffff166323b872dd303384600201546040518463ffffffff1660e01b81526004016105d8939291906126d9565b600060405180830381600087803b1580156105f257600080fd5b505af1158015610606573d6000803e3d6000fd5b505050503373ffffffffffffffffffffffffffffffffffffffff168160010160009054906101000a900473ffffffffffffffffffffffffffffffffffffffff1673ffffffffffffffffffffffffffffffffffffffff167fd4aa65612aeb3d5fd82c9fcc38a4516d1cef8a78aec4e93858049695fad791ec848460020154604051610691929190612710565b60405180910390a3506106a26120a6565b50565b7f000000000000000000000000000000000000000000000000000000000000000081565b60015481565b7f000000000000000000000000000000000000000000000000000000000000000081565b6106fb612060565b60006002600084815260200190815260200160002090508060040160009054906101000a900473ffffffffffffffffffffffffffffffffffffffff1673ffffffffffffffffffffffffffffffffffffffff163373ffffffffffffffffffffffffffffffffffffffff16146107a4576040517f08c379a000000000000000000000000000000000000000000000000000000000815260040161079b90612785565b60405180910390fd5b8060040160149054906101000a900460ff16156107f6576040517f08c379a00000000000000000000000000000000000000000000000000000000081526004016107ed906127f1565b60405180910390fd5b600060036000858152602001908152602001600020838154811061081d5761081c612811565b5b906000526020600020906003020190508060020160009054906101000a900460ff161561087f576040517f08c379a00000000000000000000000000000000000000000000000000000000081526004016108769061288c565b60405180910390fd5b60018160020160006101000a81548160ff02191690831515021790555060018260040160146101000a81548160ff021916908315150217905550600081600101549050600060647f0000000000000000000000000000000000000000000000000000000000000000836108f291906128db565b6108fc919061294c565b90508360040160009054906101000a900473ffffffffffffffffffffffffffffffffffffffff1673ffffffffffffffffffffffffffffffffffffffff166108fc8284610948919061297d565b9081150290604051600060405180830381858888f19350505050158015610973573d6000803e3d6000fd5b507f000000000000000000000000000000000000000000000000000000000000000073ffffffffffffffffffffffffffffffffffffffff166108fc829081150290604051600060405180830381858888f193505050501580156109da573d6000803e3d6000fd5b508360010160009054906101000a900473ffffffffffffffffffffffffffffffffffffffff1673ffffffffffffffffffffffffffffffffffffffff166323b872dd308560000160009054906101000a900473ffffffffffffffffffffffffffffffffffffffff1687600201546040518463ffffffff1660e01b8152600401610a64939291906129d2565b600060405180830381600087803b158015610a7e57600080fd5b505af1158015610a92573d6000803e3d6000fd5b505050508260000160009054906101000a900473ffffffffffffffffffffffffffffffffffffffff1673ffffffffffffffffffffffffffffffffffffffff16867fea555ab99331ceac5051c58f17cc7b411b30241b0e28cb93a7d3a24c77a7a9a984604051610b019190612215565b60405180910390a350505050610b156120a6565b5050565b610b21612060565b60006002600083815260200190815260200160002090508060040160159054906101000a900460ff16610b89576040517f08c379a0000000000000000000000000000000000000000000000000000000008152600401610b8090612a55565b60405180910390fd5b80600501544210610bcf576040517f08c379a0000000000000000000000000000000000000000000000000000000008152600401610bc690612ac1565b60405180910390fd5b80600701543411610c15576040517f08c379a0000000000000000000000000000000000000000000000000000000008152600401610c0c90612b2d565b60405180910390fd5b600073ffffffffffffffffffffffffffffffffffffffff168160060160009054906101000a900473ffffffffffffffffffffffffffffffffffffffff1673ffffffffffffffffffffffffffffffffffffffff1614610cdd578060060160009054906101000a900473ffffffffffffffffffffffffffffffffffffffff1673ffffffffffffffffffffffffffffffffffffffff166108fc82600701549081150290604051600060405180830381858888f19350505050158015610cdb573d6000803e3d6000fd5b505b338160060160006101000a81548173ffffffffffffffffffffffffffffffffffffffff021916908373ffffffffffffffffffffffffffffffffffffffff1602179055503481600701819055503373ffffffffffffffffffffffffffffffffffffffff16827fb8d756f2d1da4663767eb4d559780ace84f2f65a421a60ddcb47e8b2e5d2fd2634604051610d709190612215565b60405180910390a350610d816120a6565b50565b610d8c612060565b60006002600083815260200190815260200160002090508060040160149054906101000a900460ff1615610df5576040517f08c379a0000000000000000000000000000000000000000000000000000000008152600401610dec906127f1565b60405180910390fd5b8060040160159054906101000a900460ff1615610e47576040517f08c379a0000000000000000000000000000000000000000000000000000000008152600401610e3e90612bbf565b60405180910390fd5b60003411610e8a576040517f08c379a0000000000000000000000000000000000000000000000000000000008152600401610e8190612c2b565b60405180910390fd5b6003600083815260200190815260200160002060405180606001604052803373ffffffffffffffffffffffffffffffffffffffff16815260200134815260200160001515815250908060018154018082558091505060019003906000526020600020906003020160009091909190915060008201518160000160006101000a81548173ffffffffffffffffffffffffffffffffffffffff021916908373ffffffffffffffffffffffffffffffffffffffff1602179055506020820151816001015560408201518160020160006101000a81548160ff02191690831515021790555050503373ffffffffffffffffffffffffffffffffffffffff16827fbdf1e76c2ba2a5c85b93bf78678a4a3b06d63b18422612dac8d7d5249ed4671434604051610fb49190612215565b60405180910390a350610fc56120a6565b50565b60026020528060005260406000206000915090508060000154908060010160009054906101000a900473ffffffffffffffffffffffffffffffffffffffff16908060020154908060030154908060040160009054906101000a900473ffffffffffffffffffffffffffffffffffffffff16908060040160149054906101000a900460ff16908060040160159054906101000a900460ff16908060050154908060060160009054906101000a900473ffffffffffffffffffffffffffffffffffffffff1690806007015490508a565b600060647f000000000000000000000000000000000000000000000000000000000000000060646110c79190612c4b565b60026000858152602001908152602001600020600301546110e891906128db565b6110f2919061294c565b9050919050565b611101612060565b600060026000838152602001908152602001600020905060008211801561112a57506001548211155b611169576040517f08c379a000000000000000000000000000000000000000000000000000000000815260040161116090612ccb565b60405180910390fd5b8060040160149054906101000a900460ff16156111bb576040517f08c379a00000000000000000000000000000000000000000000000000000000081526004016111b2906127f1565b60405180910390fd5b8060040160159054906101000a900460ff161561120d576040517f08c379a000000000000000000000000000000000000000000000000000000000815260040161120490612d37565b60405180910390fd5b600061121883611096565b90508034101561125d576040517f08c379a000000000000000000000000000000000000000000000000000000000815260040161125490612da3565b60405180910390fd5b60018260040160146101000a81548160ff0219169083151502179055508160040160009054906101000a900473ffffffffffffffffffffffffffffffffffffffff1673ffffffffffffffffffffffffffffffffffffffff166108fc83600301549081150290604051600060405180830381858888f193505050501580156112e8573d6000803e3d6000fd5b507f000000000000000000000000000000000000000000000000000000000000000073ffffffffffffffffffffffffffffffffffffffff166108fc836003015483611333919061297d565b9081150290604051600060405180830381858888f1935050505015801561135e573d6000803e3d6000fd5b508160010160009054906101000a900473ffffffffffffffffffffffffffffffffffffffff1673ffffffffffffffffffffffffffffffffffffffff166323b872dd303385600201546040518463ffffffff1660e01b81526004016113c4939291906126d9565b600060405180830381600087803b1580156113de57600080fd5b505af11580156113f2573d6000803e3d6000fd5b505050503373ffffffffffffffffffffffffffffffffffffffff168260040160009054906101000a900473ffffffffffffffffffffffffffffffffffffffff1673ffffffffffffffffffffffffffffffffffffffff168360010160009054906101000a900473ffffffffffffffffffffffffffffffffffffffff1673ffffffffffffffffffffffffffffffffffffffff167f8b4c9c8a607d67b321582dd8461041b1dc2ceeca70c8b7f37f8e02095cf2e76d86866002015487600301546040516114be93929190612dc3565b60405180910390a450506114d06120a6565b50565b6114db612060565b6000821161151e576040517f08c379a000000000000000000000000000000000000000000000000000000000815260040161151590612e46565b60405180910390fd5b60008111611561576040517f08c379a000000000000000000000000000000000000000000000000000000000815260040161155890612eb2565b60405180910390fd5b6001600081548092919061157490612ed2565b91905055508373ffffffffffffffffffffffffffffffffffffffff166323b872dd3330866040518463ffffffff1660e01b81526004016115b6939291906126d9565b600060405180830381600087803b1580156115d057600080fd5b505af11580156115e4573d6000803e3d6000fd5b5050505060405180610140016040528060015481526020018573ffffffffffffffffffffffffffffffffffffffff1681526020018481526020018381526020013373ffffffffffffffffffffffffffffffffffffffff168152602001600015158152602001600115158152602001824261165e9190612c4b565b8152602001600073ffffffffffffffffffffffffffffffffffffffff16815260200160008152506002600060015481526020019081526020016000206000820151816000015560208201518160010160006101000a81548173ffffffffffffffffffffffffffffffffffffffff021916908373ffffffffffffffffffffffffffffffffffffffff160217905550604082015181600201556060820151816003015560808201518160040160006101000a81548173ffffffffffffffffffffffffffffffffffffffff021916908373ffffffffffffffffffffffffffffffffffffffff16021790555060a08201518160040160146101000a81548160ff02191690831515021790555060c08201518160040160156101000a81548160ff02191690831515021790555060e082015181600501556101008201518160060160006101000a81548173ffffffffffffffffffffffffffffffffffffffff021916908373ffffffffffffffffffffffffffffffffffffffff16021790555061012082015181600701559050503373ffffffffffffffffffffffffffffffffffffffff168473ffffffffffffffffffffffffffffffffffffffff167f655a0cf9c8db81512be9a76dc1c5ae5380b8816ce6ad659cd61b715e2999d59a600154868660405161184993929190612dc3565b60405180910390a36118596120a6565b50505050565b606060036000838152602001908152602001600020805480602002602001604051908101604052809291908181526020016000905b8282101561194157838290600052602060002090600302016040518060600160405290816000820160009054906101000a900473ffffffffffffffffffffffffffffffffffffffff1673ffffffffffffffffffffffffffffffffffffffff1673ffffffffffffffffffffffffffffffffffffffff168152602001600182015481526020016002820160009054906101000a900460ff16151515158152505081526020019060010190611894565b505050509050919050565b611954612060565b60006002600083815260200190815260200160002090508060040160159054906101000a900460ff166119bc576040517f08c379a00000000000000000000000000000000000000000000000000000000081526004016119b390612a55565b60405180910390fd5b8060050154421015611a03576040517f08c379a00000000000000000000000000000000000000000000000000000000081526004016119fa90612f66565b60405180910390fd5b60018160040160146101000a81548160ff021916908315150217905550600073ffffffffffffffffffffffffffffffffffffffff168160060160009054906101000a900473ffffffffffffffffffffffffffffffffffffffff1673ffffffffffffffffffffffffffffffffffffffff1614611c5a57600060647f00000000000000000000000000000000000000000000000000000000000000008360070154611aac91906128db565b611ab6919061294c565b90508160040160009054906101000a900473ffffffffffffffffffffffffffffffffffffffff1673ffffffffffffffffffffffffffffffffffffffff166108fc828460070154611b06919061297d565b9081150290604051600060405180830381858888f19350505050158015611b31573d6000803e3d6000fd5b507f000000000000000000000000000000000000000000000000000000000000000073ffffffffffffffffffffffffffffffffffffffff166108fc829081150290604051600060405180830381858888f19350505050158015611b98573d6000803e3d6000fd5b508160010160009054906101000a900473ffffffffffffffffffffffffffffffffffffffff1673ffffffffffffffffffffffffffffffffffffffff166323b872dd308460060160009054906101000a900473ffffffffffffffffffffffffffffffffffffffff1685600201546040518463ffffffff1660e01b8152600401611c22939291906126d9565b600060405180830381600087803b158015611c3c57600080fd5b505af1158015611c50573d6000803e3d6000fd5b5050505050611d16565b8060010160009054906101000a900473ffffffffffffffffffffffffffffffffffffffff1673ffffffffffffffffffffffffffffffffffffffff166323b872dd308360040160009054906101000a900473ffffffffffffffffffffffffffffffffffffffff1684600201546040518463ffffffff1660e01b8152600401611ce3939291906129d2565b600060405180830381600087803b158015611cfd57600080fd5b505af1158015611d11573d6000803e3d6000fd5b505050505b50611d1f6120a6565b50565b611d2a612060565b60008111611d6d576040517f08c379a0000000000000000000000000000000000000000000000000000000008152600401611d6490612e46565b60405180910390fd5b60016000815480929190611d8090612ed2565b91905055508273ffffffffffffffffffffffffffffffffffffffff166323b872dd3330856040518463ffffffff1660e01b8152600401611dc2939291906126d9565b600060405180830381600087803b158015611ddc57600080fd5b505af1158015611df0573d6000803e3d6000fd5b5050505060405180610140016040528060015481526020018473ffffffffffffffffffffffffffffffffffffffff1681526020018381526020018281526020013373ffffffffffffffffffffffffffffffffffffffff16815260200160001515815260200160001515815260200160008152602001600073ffffffffffffffffffffffffffffffffffffffff16815260200160008152506002600060015481526020019081526020016000206000820151816000015560208201518160010160006101000a81548173ffffffffffffffffffffffffffffffffffffffff021916908373ffffffffffffffffffffffffffffffffffffffff160217905550604082015181600201556060820151816003015560808201518160040160006101000a81548173ffffffffffffffffffffffffffffffffffffffff021916908373ffffffffffffffffffffffffffffffffffffffff16021790555060a08201518160040160146101000a81548160ff02191690831515021790555060c08201518160040160156101000a81548160ff02191690831515021790555060e082015181600501556101008201518160060160006101000a81548173ffffffffffffffffffffffffffffffffffffffff021916908373ffffffffffffffffffffffffffffffffffffffff16021790555061012082015181600701559050503373ffffffffffffffffffffffffffffffffffffffff168373ffffffffffffffffffffffffffffffffffffffff167f655a0cf9c8db81512be9a76dc1c5ae5380b8816ce6ad659cd61b715e2999d59a600154858560405161204b93929190612dc3565b60405180910390a361205b6120a6565b505050565b60026000540361209c576040517f3ee5aeb500000000000000000000000000000000000000000000000000000000815260040160405180910390fd5b6002600081905550565b6001600081905550565b600080fd5b6000819050919050565b6120c8816120b5565b81146120d357600080fd5b50565b6000813590506120e5816120bf565b92915050565b60008060408385031215612102576121016120b0565b5b6000612110858286016120d6565b9250506020612121858286016120d6565b9150509250929050565b600073ffffffffffffffffffffffffffffffffffffffff82169050919050565b60006121568261212b565b9050919050565b6121668161214b565b82525050565b612175816120b5565b82525050565b60008115159050919050565b6121908161217b565b82525050565b60006060820190506121ab600083018661215d565b6121b8602083018561216c565b6121c56040830184612187565b949350505050565b6000602082840312156121e3576121e26120b0565b5b60006121f1848285016120d6565b91505092915050565b600060208201905061220f600083018461215d565b92915050565b600060208201905061222a600083018461216c565b92915050565b6000819050919050565b600061225561225061224b8461212b565b612230565b61212b565b9050919050565b60006122678261223a565b9050919050565b60006122798261225c565b9050919050565b6122898161226e565b82525050565b600061229a8261212b565b9050919050565b6122aa8161228f565b82525050565b6000610140820190506122c6600083018d61216c565b6122d3602083018c612280565b6122e0604083018b61216c565b6122ed606083018a61216c565b6122fa608083018961215d565b61230760a0830188612187565b61231460c0830187612187565b61232160e083018661216c565b61232f6101008301856122a1565b61233d61012083018461216c565b9b9a5050505050505050505050565b60006123578261228f565b9050919050565b6123678161234c565b811461237257600080fd5b50565b6000813590506123848161235e565b92915050565b600080600080608085870312156123a4576123a36120b0565b5b60006123b287828801612375565b94505060206123c3878288016120d6565b93505060406123d4878288016120d6565b92505060606123e5878288016120d6565b91505092959194509250565b600081519050919050565b600082825260208201905092915050565b6000819050602082019050919050565b6124268161214b565b82525050565b612435816120b5565b82525050565b6124448161217b565b82525050565b606082016000820151612460600085018261241d565b506020820151612473602085018261242c565b506040820151612486604085018261243b565b50505050565b6000612498838361244a565b60608301905092915050565b6000602082019050919050565b60006124bc826123f1565b6124c681856123fc565b93506124d18361240d565b8060005b838110156125025781516124e9888261248c565b97506124f4836124a4565b9250506001810190506124d5565b5085935050505092915050565b6000602082019050818103600083015261252981846124b1565b905092915050565b60008060006060848603121561254a576125496120b0565b5b600061255886828701612375565b9350506020612569868287016120d6565b925050604061257a868287016120d6565b9150509250925092565b600082825260208201905092915050565b7f4974656d20646f65736e27742065786973740000000000000000000000000000600082015250565b60006125cb601283612584565b91506125d682612595565b602082019050919050565b600060208201905081810360008301526125fa816125be565b9050919050565b7f4e6f742073656c6c657200000000000000000000000000000000000000000000600082015250565b6000612637600a83612584565b915061264282612601565b602082019050919050565b600060208201905081810360008301526126668161262a565b9050919050565b7f416c726561647920736f6c640000000000000000000000000000000000000000600082015250565b60006126a3600c83612584565b91506126ae8261266d565b602082019050919050565b600060208201905081810360008301526126d281612696565b9050919050565b60006060820190506126ee60008301866122a1565b6126fb60208301856122a1565b612708604083018461216c565b949350505050565b6000604082019050612725600083018561216c565b612732602083018461216c565b9392505050565b7f4e6f74207468652073656c6c6572000000000000000000000000000000000000600082015250565b600061276f600e83612584565b915061277a82612739565b602082019050919050565b6000602082019050818103600083015261279e81612762565b9050919050565b7f4974656d20616c726561647920736f6c64000000000000000000000000000000600082015250565b60006127db601183612584565b91506127e6826127a5565b602082019050919050565b6000602082019050818103600083015261280a816127ce565b9050919050565b7f4e487b7100000000000000000000000000000000000000000000000000000000600052603260045260246000fd5b7f4f6666657220616c726561647920616363657074656400000000000000000000600082015250565b6000612876601683612584565b915061288182612840565b602082019050919050565b600060208201905081810360008301526128a581612869565b9050919050565b7f4e487b7100000000000000000000000000000000000000000000000000000000600052601160045260246000fd5b60006128e6826120b5565b91506128f1836120b5565b92508282026128ff816120b5565b91508282048414831517612916576129156128ac565b5b5092915050565b7f4e487b7100000000000000000000000000000000000000000000000000000000600052601260045260246000fd5b6000612957826120b5565b9150612962836120b5565b9250826129725761297161291d565b5b828204905092915050565b6000612988826120b5565b9150612993836120b5565b92508282039050818111156129ab576129aa6128ac565b5b92915050565b60006129bc8261225c565b9050919050565b6129cc816129b1565b82525050565b60006060820190506129e760008301866122a1565b6129f460208301856129c3565b612a01604083018461216c565b949350505050565b7f4e6f742061756374696f6e206974656d00000000000000000000000000000000600082015250565b6000612a3f601083612584565b9150612a4a82612a09565b602082019050919050565b60006020820190508181036000830152612a6e81612a32565b9050919050565b7f41756374696f6e20656e64656400000000000000000000000000000000000000600082015250565b6000612aab600d83612584565b9150612ab682612a75565b602082019050919050565b60006020820190508181036000830152612ada81612a9e565b9050919050565b7f42696420746f6f206c6f77000000000000000000000000000000000000000000600082015250565b6000612b17600b83612584565b9150612b2282612ae1565b602082019050919050565b60006020820190508181036000830152612b4681612b0a565b9050919050565b7f43616e6e6f74206d616b65206f66666572206f6e2061756374696f6e2069746560008201527f6d00000000000000000000000000000000000000000000000000000000000000602082015250565b6000612ba9602183612584565b9150612bb482612b4d565b604082019050919050565b60006020820190508181036000830152612bd881612b9c565b9050919050565b7f4f66666572206d757374206265203e2030000000000000000000000000000000600082015250565b6000612c15601183612584565b9150612c2082612bdf565b602082019050919050565b60006020820190508181036000830152612c4481612c08565b9050919050565b6000612c56826120b5565b9150612c61836120b5565b9250828201905080821115612c7957612c786128ac565b5b92915050565b7f4974656d20646f6573206e6f7420657869737400000000000000000000000000600082015250565b6000612cb5601383612584565b9150612cc082612c7f565b602082019050919050565b60006020820190508181036000830152612ce481612ca8565b9050919050565b7f43616e6e6f74206275792061756374696f6e206974656d000000000000000000600082015250565b6000612d21601783612584565b9150612d2c82612ceb565b602082019050919050565b60006020820190508181036000830152612d5081612d14565b9050919050565b7f496e73756666696369656e742045544800000000000000000000000000000000600082015250565b6000612d8d601083612584565b9150612d9882612d57565b602082019050919050565b60006020820190508181036000830152612dbc81612d80565b9050919050565b6000606082019050612dd8600083018661216c565b612de5602083018561216c565b612df2604083018461216c565b949350505050565b7f5072696365206d757374206265203e2030000000000000000000000000000000600082015250565b6000612e30601183612584565b9150612e3b82612dfa565b602082019050919050565b60006020820190508181036000830152612e5f81612e23565b9050919050565b7f4475726174696f6e206d757374206265203e2030000000000000000000000000600082015250565b6000612e9c601483612584565b9150612ea782612e66565b602082019050919050565b60006020820190508181036000830152612ecb81612e8f565b9050919050565b6000612edd826120b5565b91507fffffffffffffffffffffffffffffffffffffffffffffffffffffffffffffffff8203612f0f57612f0e6128ac565b5b600182019050919050565b7f41756374696f6e206e6f7420656e646564000000000000000000000000000000600082015250565b6000612f50601183612584565b9150612f5b82612f1a565b602082019050919050565b60006020820190508181036000830152612f7f81612f43565b905091905056fea26469706673582212205eadbbe0932b4c60fe9a50cde992fd02a264aafd2aadc8b2a452da5dcb22aa1d64736f6c634300081c0033",
  "linkReferences": {},
  "deployedLinkReferences": {}
}