{
  "_format": "hh-sol-artifact-1",
  "contractName": "Marketplace",
  "sourceName": "contracts/Marketplace.sol",
  "abi": [
    {
      "inputs": [
        {
          "internalType": "address",
          "name": "_feeAccount",
          "type": "address"
        },
        {
          "internalType": "uint256",
          "name": "_feePercent",
          "type": "uint256"
        }
      ],
      "stateMutability": "nonpayable",
      "type": "constructor"
    },
    {
      "inputs": [],
      "name": "ReentrancyGuardReentrantCall",
      "type": "error"
    },
    {
      "anonymous": false,
      "inputs": [
        {
          "indexed": true,
          "internalType": "uint256",
          "name": "itemId",
          "type": "uint256"
        },
        {
          "indexed": true,
          "internalType": "address",
          "name": "bidder",
          "type": "address"
        },
        {
          "indexed": false,
          "internalType": "uint256",
          "name": "amount",
          "type": "uint256"
        }
      ],
      "name": "AuctionBid",
      "type": "event"
    },
    {
      "anonymous": false,
      "inputs": [
        {
          "indexed": false,
          "internalType": "uint256",
          "name": "itemId",
          "type": "uint256"
        },
        {
          "indexed": true,
          "internalType": "address",
          "name": "nft",
          "type": "address"
        },
        {
          "indexed": false,
          "internalType": "uint256",
          "name": "tokenId",
          "type": "uint256"
        },
        {
          "indexed": false,
          "internalType": "uint256",
          "name": "price",
          "type": "uint256"
        },
        {
          "indexed": true,
          "internalType": "address",
          "name": "seller",
          "type": "address"
        },
        {
          "indexed": true,
          "internalType": "address",
          "name": "buyer",
          "type": "address"
        }
      ],
      "name": "Bought",
      "type": "event"
    },
    {
      "anonymous": false,
      "inputs": [
        {
          "indexed": false,
          "internalType": "uint256",
          "name": "itemId",
          "type": "uint256"
        },
        {
          "indexed": true,
          "internalType": "address",
          "name": "nft",
          "type": "address"
        },
        {
          "indexed": false,
          "internalType": "uint256",
          "name": "tokenId",
          "type": "uint256"
        },
        {
          "indexed": true,
          "internalType": "address",
          "name": "seller",
          "type": "address"
        }
      ],
      "name": "Cancelled",
      "type": "event"
    },
    {
      "anonymous": false,
      "inputs": [
        {
          "indexed": false,
          "internalType": "uint256",
          "name": "itemId",
          "type": "uint256"
        },
        {
          "indexed": true,
          "internalType": "address",
          "name": "nft",
          "type": "address"
        },
        {
          "indexed": false,
          "internalType": "uint256",
          "name": "tokenId",
          "type": "uint256"
        },
        {
          "indexed": false,
          "internalType": "uint256",
          "name": "price",
          "type": "uint256"
        },
        {
          "indexed": true,
          "internalType": "address",
          "name": "seller",
          "type": "address"
        }
      ],
      "name": "Offered",
      "type": "event"
    },
    {
      "inputs": [
        {
          "internalType": "uint256",
          "name": "_itemId",
          "type": "uint256"
        }
      ],
      "name": "cancelItem",
      "outputs": [],
      "stateMutability": "nonpayable",
      "type": "function"
    },
    {
      "inputs": [],
      "name": "feeAccount",
      "outputs": [
        {
          "internalType": "address payable",
          "name": "",
          "type": "address"
        }
      ],
      "stateMutability": "view",
      "type": "function"
    },
    {
      "inputs": [],
      "name": "feePercent",
      "outputs": [
        {
          "internalType": "uint256",
          "name": "",
          "type": "uint256"
        }
      ],
      "stateMutability": "view",
      "type": "function"
    },
    {
      "inputs": [
        {
          "internalType": "uint256",
          "name": "_itemId",
          "type": "uint256"
        }
      ],
      "name": "finalizeAuction",
      "outputs": [],
      "stateMutability": "nonpayable",
      "type": "function"
    },
    {
      "inputs": [
        {
          "internalType": "uint256",
          "name": "_itemId",
          "type": "uint256"
        }
      ],
      "name": "getTotalPrice",
      "outputs": [
        {
          "internalType": "uint256",
          "name": "",
          "type": "uint256"
        }
      ],
      "stateMutability": "view",
      "type": "function"
    },
    {
      "inputs": [],
      "name": "itemCount",
      "outputs": [
        {
          "internalType": "uint256",
          "name": "",
          "type": "uint256"
        }
      ],
      "stateMutability": "view",
      "type": "function"
    },
    {
      "inputs": [
        {
          "internalType": "uint256",
          "name": "",
          "type": "uint256"
        }
      ],
      "name": "items",
      "outputs": [
        {
          "internalType": "uint256",
          "name": "itemId",
          "type": "uint256"
        },
        {
          "internalType": "contract IERC721",
          "name": "nft",
          "type": "address"
        },
        {
          "internalType": "uint256",
          "name": "tokenId",
          "type": "uint256"
        },
        {
          "internalType": "uint256",
          "name": "price",
          "type": "uint256"
        },
        {
          "internalType": "address payable",
          "name": "seller",
          "type": "address"
        },
        {
          "internalType": "bool",
          "name": "sold",
          "type": "bool"
        },
        {
          "internalType": "bool",
          "name": "isAuction",
          "type": "bool"
        },
        {
          "internalType": "uint256",
          "name": "endTime",
          "type": "uint256"
        },
        {
          "internalType": "address",
          "name": "highestBidder",
          "type": "address"
        },
        {
          "internalType": "uint256",
          "name": "highestBid",
          "type": "uint256"
        }
      ],
      "stateMutability": "view",
      "type": "function"
    },
    {
      "inputs": [
        {
          "internalType": "contract IERC721",
          "name": "_nft",
          "type": "address"
        },
        {
          "internalType": "uint256",
          "name": "_tokenId",
          "type": "uint256"
        },
        {
          "internalType": "uint256",
          "name": "_startPrice",
          "type": "uint256"
        },
        {
          "internalType": "uint256",
          "name": "_duration",
          "type": "uint256"
        }
      ],
      "name": "makeAuctionItem",
      "outputs": [],
      "stateMutability": "nonpayable",
      "type": "function"
    },
    {
      "inputs": [
        {
          "internalType": "contract IERC721",
          "name": "_nft",
          "type": "address"
        },
        {
          "internalType": "uint256",
          "name": "_tokenId",
          "type": "uint256"
        },
        {
          "internalType": "uint256",
          "name": "_price",
          "type": "uint256"
        }
      ],
      "name": "makeItem",
      "outputs": [],
      "stateMutability": "nonpayable",
      "type": "function"
    },
    {
      "inputs": [
        {
          "internalType": "uint256",
          "name": "_itemId",
          "type": "uint256"
        }
      ],
      "name": "placeBid",
      "outputs": [],
      "stateMutability": "payable",
      "type": "function"
    },
    {
      "inputs": [
        {
          "internalType": "uint256",
          "name": "_itemId",
          "type": "uint256"
        }
      ],
      "name": "purchaseItem",
      "outputs": [],
      "stateMutability": "payable",
      "type": "function"
    }
  ],
  "bytecode": "0x60c060405234801561001057600080fd5b5060405161262238038061262283398181016040528101906100329190610185565b6001600081905550600073ffffffffffffffffffffffffffffffffffffffff168273ffffffffffffffffffffffffffffffffffffffff16036100a9576040517f08c379a00000000000000000000000000000000000000000000000000000000081526004016100a090610222565b60405180910390fd5b8173ffffffffffffffffffffffffffffffffffffffff1660808173ffffffffffffffffffffffffffffffffffffffff16815250508060a081815250505050610242565b600080fd5b600073ffffffffffffffffffffffffffffffffffffffff82169050919050565b600061011c826100f1565b9050919050565b61012c81610111565b811461013757600080fd5b50565b60008151905061014981610123565b92915050565b6000819050919050565b6101628161014f565b811461016d57600080fd5b50565b60008151905061017f81610159565b92915050565b6000806040838503121561019c5761019b6100ec565b5b60006101aa8582860161013a565b92505060206101bb85828601610170565b9150509250929050565b600082825260208201905092915050565b7f496e76616c696420666565206163636f756e7400000000000000000000000000600082015250565b600061020c6013836101c5565b9150610217826101d6565b602082019050919050565b6000602082019050818103600083015261023b816101ff565b9050919050565b60805160a05161239f610283600039600081816105500152818161090301526111f801526000818161052601528181610ae301526112ae015261239f6000f3fe60806040526004361061009c5760003560e01c8063bfb231d211610064578063bfb231d214610167578063ca7dd375146101ad578063d38ea5bf146101ea578063d58846ee14610206578063e80838631461022f578063fa00afc7146102585761009c565b806351563f8e146100a157806365e17c9d146100ca5780636bfb0d01146100f55780637fd6f15c146101205780639979ef451461014b575b600080fd5b3480156100ad57600080fd5b506100c860048036038101906100c39190611864565b610281565b005b3480156100d657600080fd5b506100df610524565b6040516100ec91906118d2565b60405180910390f35b34801561010157600080fd5b5061010a610548565b60405161011791906118fc565b60405180910390f35b34801561012c57600080fd5b5061013561054e565b60405161014291906118fc565b60405180910390f35b61016560048036038101906101609190611864565b610572565b005b34801561017357600080fd5b5061018e60048036038101906101899190611864565b61082f565b6040516101a49a999897969594939291906119b2565b60405180910390f35b3480156101b957600080fd5b506101d460048036038101906101cf9190611864565b6108fd565b6040516101e191906118fc565b60405180910390f35b61020460048036038101906101ff9190611864565b610960565b005b34801561021257600080fd5b5061022d60048036038101906102289190611a8c565b610ce8565b005b34801561023b57600080fd5b5061025660048036038101906102519190611864565b611074565b005b34801561026457600080fd5b5061027f600480360381019061027a9190611af3565b61149c565b005b6102896117d9565b60006002600083815260200190815260200160002090506000821180156102b257506001548211155b6102f1576040517f08c379a00000000000000000000000000000000000000000000000000000000081526004016102e890611ba3565b60405180910390fd5b3373ffffffffffffffffffffffffffffffffffffffff168160040160009054906101000a900473ffffffffffffffffffffffffffffffffffffffff1673ffffffffffffffffffffffffffffffffffffffff1614610383576040517f08c379a000000000000000000000000000000000000000000000000000000000815260040161037a90611c0f565b60405180910390fd5b8060040160149054906101000a900460ff16156103d5576040517f08c379a00000000000000000000000000000000000000000000000000000000081526004016103cc90611c7b565b60405180910390fd5b60018160040160146101000a81548160ff0219169083151502179055508060010160009054906101000a900473ffffffffffffffffffffffffffffffffffffffff1673ffffffffffffffffffffffffffffffffffffffff166323b872dd303384600201546040518463ffffffff1660e01b815260040161045793929190611c9b565b600060405180830381600087803b15801561047157600080fd5b505af1158015610485573d6000803e3d6000fd5b505050503373ffffffffffffffffffffffffffffffffffffffff168160010160009054906101000a900473ffffffffffffffffffffffffffffffffffffffff1673ffffffffffffffffffffffffffffffffffffffff167fd4aa65612aeb3d5fd82c9fcc38a4516d1cef8a78aec4e93858049695fad791ec848460020154604051610510929190611cd2565b60405180910390a35061052161181f565b50565b7f000000000000000000000000000000000000000000000000000000000000000081565b60015481565b7f000000000000000000000000000000000000000000000000000000000000000081565b61057a6117d9565b60006002600083815260200190815260200160002090508060040160159054906101000a900460ff166105e2576040517f08c379a00000000000000000000000000000000000000000000000000000000081526004016105d990611d47565b60405180910390fd5b80600501544210610628576040517f08c379a000000000000000000000000000000000000000000000000000000000815260040161061f90611db3565b60405180910390fd5b8060070154341161066e576040517f08c379a000000000000000000000000000000000000000000000000000000000815260040161066590611e1f565b60405180910390fd5b8060040160149054906101000a900460ff16156106c0576040517f08c379a00000000000000000000000000000000000000000000000000000000081526004016106b790611e8b565b60405180910390fd5b600073ffffffffffffffffffffffffffffffffffffffff168160060160009054906101000a900473ffffffffffffffffffffffffffffffffffffffff1673ffffffffffffffffffffffffffffffffffffffff1614610788578060060160009054906101000a900473ffffffffffffffffffffffffffffffffffffffff1673ffffffffffffffffffffffffffffffffffffffff166108fc82600701549081150290604051600060405180830381858888f19350505050158015610786573d6000803e3d6000fd5b505b338160060160006101000a81548173ffffffffffffffffffffffffffffffffffffffff021916908373ffffffffffffffffffffffffffffffffffffffff1602179055503481600701819055503373ffffffffffffffffffffffffffffffffffffffff16827fb8d756f2d1da4663767eb4d559780ace84f2f65a421a60ddcb47e8b2e5d2fd263460405161081b91906118fc565b60405180910390a35061082c61181f565b50565b60026020528060005260406000206000915090508060000154908060010160009054906101000a900473ffffffffffffffffffffffffffffffffffffffff16908060020154908060030154908060040160009054906101000a900473ffffffffffffffffffffffffffffffffffffffff16908060040160149054906101000a900460ff16908060040160159054906101000a900460ff16908060050154908060060160009054906101000a900473ffffffffffffffffffffffffffffffffffffffff1690806007015490508a565b600060647f0000000000000000000000000000000000000000000000000000000000000000606461092e9190611eda565b600260008581526020019081526020016000206003015461094f9190611f0e565b6109599190611f7f565b9050919050565b6109686117d9565b6000610973826108fd565b9050600060026000848152602001908152602001600020905060008311801561099e57506001548311155b6109dd576040517f08c379a00000000000000000000000000000000000000000000000000000000081526004016109d490611ba3565b60405180910390fd5b81341015610a20576040517f08c379a0000000000000000000000000000000000000000000000000000000008152600401610a1790612022565b60405180910390fd5b8060040160149054906101000a900460ff1615610a72576040517f08c379a0000000000000000000000000000000000000000000000000000000008152600401610a699061208e565b60405180910390fd5b8060040160009054906101000a900473ffffffffffffffffffffffffffffffffffffffff1673ffffffffffffffffffffffffffffffffffffffff166108fc82600301549081150290604051600060405180830381858888f19350505050158015610ae0573d6000803e3d6000fd5b507f000000000000000000000000000000000000000000000000000000000000000073ffffffffffffffffffffffffffffffffffffffff166108fc826003015484610b2b91906120ae565b9081150290604051600060405180830381858888f19350505050158015610b56573d6000803e3d6000fd5b5060018160040160146101000a81548160ff0219169083151502179055508060010160009054906101000a900473ffffffffffffffffffffffffffffffffffffffff1673ffffffffffffffffffffffffffffffffffffffff166323b872dd303384600201546040518463ffffffff1660e01b8152600401610bd993929190611c9b565b600060405180830381600087803b158015610bf357600080fd5b505af1158015610c07573d6000803e3d6000fd5b505050503373ffffffffffffffffffffffffffffffffffffffff168160040160009054906101000a900473ffffffffffffffffffffffffffffffffffffffff1673ffffffffffffffffffffffffffffffffffffffff168260010160009054906101000a900473ffffffffffffffffffffffffffffffffffffffff1673ffffffffffffffffffffffffffffffffffffffff167f8b4c9c8a607d67b321582dd8461041b1dc2ceeca70c8b7f37f8e02095cf2e76d8685600201548660030154604051610cd3939291906120e2565b60405180910390a45050610ce561181f565b50565b610cf06117d9565b60008211610d33576040517f08c379a0000000000000000000000000000000000000000000000000000000008152600401610d2a90612165565b60405180910390fd5b60008111610d76576040517f08c379a0000000000000000000000000000000000000000000000000000000008152600401610d6d906121d1565b60405180910390fd5b60016000815480929190610d89906121f1565b91905055508373ffffffffffffffffffffffffffffffffffffffff166323b872dd3330866040518463ffffffff1660e01b8152600401610dcb93929190611c9b565b600060405180830381600087803b158015610de557600080fd5b505af1158015610df9573d6000803e3d6000fd5b5050505060405180610140016040528060015481526020018573ffffffffffffffffffffffffffffffffffffffff1681526020018481526020018381526020013373ffffffffffffffffffffffffffffffffffffffff1681526020016000151581526020016001151581526020018242610e739190611eda565b8152602001600073ffffffffffffffffffffffffffffffffffffffff16815260200160008152506002600060015481526020019081526020016000206000820151816000015560208201518160010160006101000a81548173ffffffffffffffffffffffffffffffffffffffff021916908373ffffffffffffffffffffffffffffffffffffffff160217905550604082015181600201556060820151816003015560808201518160040160006101000a81548173ffffffffffffffffffffffffffffffffffffffff021916908373ffffffffffffffffffffffffffffffffffffffff16021790555060a08201518160040160146101000a81548160ff02191690831515021790555060c08201518160040160156101000a81548160ff02191690831515021790555060e082015181600501556101008201518160060160006101000a81548173ffffffffffffffffffffffffffffffffffffffff021916908373ffffffffffffffffffffffffffffffffffffffff16021790555061012082015181600701559050503373ffffffffffffffffffffffffffffffffffffffff168473ffffffffffffffffffffffffffffffffffffffff167f655a0cf9c8db81512be9a76dc1c5ae5380b8816ce6ad659cd61b715e2999d59a600154868660405161105e939291906120e2565b60405180910390a361106e61181f565b50505050565b61107c6117d9565b60006002600083815260200190815260200160002090508060040160159054906101000a900460ff166110e4576040517f08c379a00000000000000000000000000000000000000000000000000000000081526004016110db90611d47565b60405180910390fd5b806005015442101561112b576040517f08c379a000000000000000000000000000000000000000000000000000000000815260040161112290612285565b60405180910390fd5b8060040160149054906101000a900460ff161561117d576040517f08c379a000000000000000000000000000000000000000000000000000000000815260040161117490611e8b565b60405180910390fd5b60018160040160146101000a81548160ff021916908315150217905550600073ffffffffffffffffffffffffffffffffffffffff168160060160009054906101000a900473ffffffffffffffffffffffffffffffffffffffff1673ffffffffffffffffffffffffffffffffffffffff16146113d457600060647f000000000000000000000000000000000000000000000000000000000000000083600701546112269190611f0e565b6112309190611f7f565b90508160040160009054906101000a900473ffffffffffffffffffffffffffffffffffffffff1673ffffffffffffffffffffffffffffffffffffffff166108fc82846007015461128091906120ae565b9081150290604051600060405180830381858888f193505050501580156112ab573d6000803e3d6000fd5b507f000000000000000000000000000000000000000000000000000000000000000073ffffffffffffffffffffffffffffffffffffffff166108fc829081150290604051600060405180830381858888f19350505050158015611312573d6000803e3d6000fd5b508160010160009054906101000a900473ffffffffffffffffffffffffffffffffffffffff1673ffffffffffffffffffffffffffffffffffffffff166323b872dd308460060160009054906101000a900473ffffffffffffffffffffffffffffffffffffffff1685600201546040518463ffffffff1660e01b815260040161139c93929190611c9b565b600060405180830381600087803b1580156113b657600080fd5b505af11580156113ca573d6000803e3d6000fd5b5050505050611490565b8060010160009054906101000a900473ffffffffffffffffffffffffffffffffffffffff1673ffffffffffffffffffffffffffffffffffffffff166323b872dd308360040160009054906101000a900473ffffffffffffffffffffffffffffffffffffffff1684600201546040518463ffffffff1660e01b815260040161145d939291906122c6565b600060405180830381600087803b15801561147757600080fd5b505af115801561148b573d6000803e3d6000fd5b505050505b5061149961181f565b50565b6114a46117d9565b600081116114e7576040517f08c379a00000000000000000000000000000000000000000000000000000000081526004016114de90612349565b60405180910390fd5b600160008154809291906114fa906121f1565b91905055508273ffffffffffffffffffffffffffffffffffffffff166323b872dd3330856040518463ffffffff1660e01b815260040161153c93929190611c9b565b600060405180830381600087803b15801561155657600080fd5b505af115801561156a573d6000803e3d6000fd5b5050505060405180610140016040528060015481526020018473ffffffffffffffffffffffffffffffffffffffff1681526020018381526020018281526020013373ffffffffffffffffffffffffffffffffffffffff168152602001600015158152602001600015158152602001428152602001600073ffffffffffffffffffffffffffffffffffffffff16815260200160008152506002600060015481526020019081526020016000206000820151816000015560208201518160010160006101000a81548173ffffffffffffffffffffffffffffffffffffffff021916908373ffffffffffffffffffffffffffffffffffffffff160217905550604082015181600201556060820151816003015560808201518160040160006101000a81548173ffffffffffffffffffffffffffffffffffffffff021916908373ffffffffffffffffffffffffffffffffffffffff16021790555060a08201518160040160146101000a81548160ff02191690831515021790555060c08201518160040160156101000a81548160ff02191690831515021790555060e082015181600501556101008201518160060160006101000a81548173ffffffffffffffffffffffffffffffffffffffff021916908373ffffffffffffffffffffffffffffffffffffffff16021790555061012082015181600701559050503373ffffffffffffffffffffffffffffffffffffffff168373ffffffffffffffffffffffffffffffffffffffff167f655a0cf9c8db81512be9a76dc1c5ae5380b8816ce6ad659cd61b715e2999d59a60015485856040516117c4939291906120e2565b60405180910390a36117d461181f565b505050565b600260005403611815576040517f3ee5aeb500000000000000000000000000000000000000000000000000000000815260040160405180910390fd5b6002600081905550565b6001600081905550565b600080fd5b6000819050919050565b6118418161182e565b811461184c57600080fd5b50565b60008135905061185e81611838565b92915050565b60006020828403121561187a57611879611829565b5b60006118888482850161184f565b91505092915050565b600073ffffffffffffffffffffffffffffffffffffffff82169050919050565b60006118bc82611891565b9050919050565b6118cc816118b1565b82525050565b60006020820190506118e760008301846118c3565b92915050565b6118f68161182e565b82525050565b600060208201905061191160008301846118ed565b92915050565b6000819050919050565b600061193c61193761193284611891565b611917565b611891565b9050919050565b600061194e82611921565b9050919050565b600061196082611943565b9050919050565b61197081611955565b82525050565b60008115159050919050565b61198b81611976565b82525050565b600061199c82611891565b9050919050565b6119ac81611991565b82525050565b6000610140820190506119c8600083018d6118ed565b6119d5602083018c611967565b6119e2604083018b6118ed565b6119ef606083018a6118ed565b6119fc60808301896118c3565b611a0960a0830188611982565b611a1660c0830187611982565b611a2360e08301866118ed565b611a316101008301856119a3565b611a3f6101208301846118ed565b9b9a5050505050505050505050565b6000611a5982611991565b9050919050565b611a6981611a4e565b8114611a7457600080fd5b50565b600081359050611a8681611a60565b92915050565b60008060008060808587031215611aa657611aa5611829565b5b6000611ab487828801611a77565b9450506020611ac58782880161184f565b9350506040611ad68782880161184f565b9250506060611ae78782880161184f565b91505092959194509250565b600080600060608486031215611b0c57611b0b611829565b5b6000611b1a86828701611a77565b9350506020611b2b8682870161184f565b9250506040611b3c8682870161184f565b9150509250925092565b600082825260208201905092915050565b7f6974656d20646f65736e27742065786973740000000000000000000000000000600082015250565b6000611b8d601283611b46565b9150611b9882611b57565b602082019050919050565b60006020820190508181036000830152611bbc81611b80565b9050919050565b7f6e6f74206974656d2073656c6c65720000000000000000000000000000000000600082015250565b6000611bf9600f83611b46565b9150611c0482611bc3565b602082019050919050565b60006020820190508181036000830152611c2881611bec565b9050919050565b7f6974656d20616c726561647920736f6c64206f722063616e63656c6c65640000600082015250565b6000611c65601e83611b46565b9150611c7082611c2f565b602082019050919050565b60006020820190508181036000830152611c9481611c58565b9050919050565b6000606082019050611cb060008301866119a3565b611cbd60208301856119a3565b611cca60408301846118ed565b949350505050565b6000604082019050611ce760008301856118ed565b611cf460208301846118ed565b9392505050565b7f4e6f742061756374696f6e206974656d00000000000000000000000000000000600082015250565b6000611d31601083611b46565b9150611d3c82611cfb565b602082019050919050565b60006020820190508181036000830152611d6081611d24565b9050919050565b7f41756374696f6e20656e64656400000000000000000000000000000000000000600082015250565b6000611d9d600d83611b46565b9150611da882611d67565b602082019050919050565b60006020820190508181036000830152611dcc81611d90565b9050919050565b7f42696420746f6f206c6f77000000000000000000000000000000000000000000600082015250565b6000611e09600b83611b46565b9150611e1482611dd3565b602082019050919050565b60006020820190508181036000830152611e3881611dfc565b9050919050565b7f416c72656164792066696e616c697a6564000000000000000000000000000000600082015250565b6000611e75601183611b46565b9150611e8082611e3f565b602082019050919050565b60006020820190508181036000830152611ea481611e68565b9050919050565b7f4e487b7100000000000000000000000000000000000000000000000000000000600052601160045260246000fd5b6000611ee58261182e565b9150611ef08361182e565b9250828201905080821115611f0857611f07611eab565b5b92915050565b6000611f198261182e565b9150611f248361182e565b9250828202611f328161182e565b91508282048414831517611f4957611f48611eab565b5b5092915050565b7f4e487b7100000000000000000000000000000000000000000000000000000000600052601260045260246000fd5b6000611f8a8261182e565b9150611f958361182e565b925082611fa557611fa4611f50565b5b828204905092915050565b7f6e6f7420656e6f75676820657468657220746f20636f766572206974656d207060008201527f7269636520616e64206d61726b65742066656500000000000000000000000000602082015250565b600061200c603383611b46565b915061201782611fb0565b604082019050919050565b6000602082019050818103600083015261203b81611fff565b9050919050565b7f6974656d20616c726561647920736f6c64000000000000000000000000000000600082015250565b6000612078601183611b46565b915061208382612042565b602082019050919050565b600060208201905081810360008301526120a78161206b565b9050919050565b60006120b98261182e565b91506120c48361182e565b92508282039050818111156120dc576120db611eab565b5b92915050565b60006060820190506120f760008301866118ed565b61210460208301856118ed565b61211160408301846118ed565b949350505050565b7f5072696365206d757374206265203e2030000000000000000000000000000000600082015250565b600061214f601183611b46565b915061215a82612119565b602082019050919050565b6000602082019050818103600083015261217e81612142565b9050919050565b7f4475726174696f6e206d757374206265203e2030000000000000000000000000600082015250565b60006121bb601483611b46565b91506121c682612185565b602082019050919050565b600060208201905081810360008301526121ea816121ae565b9050919050565b60006121fc8261182e565b91507fffffffffffffffffffffffffffffffffffffffffffffffffffffffffffffffff820361222e5761222d611eab565b5b600182019050919050565b7f41756374696f6e206e6f7420656e646564000000000000000000000000000000600082015250565b600061226f601183611b46565b915061227a82612239565b602082019050919050565b6000602082019050818103600083015261229e81612262565b9050919050565b60006122b082611943565b9050919050565b6122c0816122a5565b82525050565b60006060820190506122db60008301866119a3565b6122e860208301856122b7565b6122f560408301846118ed565b949350505050565b7f5072696365206d7573742062652067726561746572207468616e207a65726f00600082015250565b6000612333601f83611b46565b915061233e826122fd565b602082019050919050565b6000602082019050818103600083015261236281612326565b905091905056fea26469706673582212205874adad96990701c9c723ee755678f0f6ae8edcc627f05810a1bbe87c06e49e64736f6c634300081c0033",
  "linkReferences": {},
  "deployedLinkReferences": {}
}