{
  "_format": "hh-sol-artifact-1",
  "contractName": "Marketplace",
  "sourceName": "contracts/Marketplace.sol",
  "abi": [
    {
      "inputs": [
        {
          "internalType": "address",
          "name": "_feeAccount",
          "type": "address"
        },
        {
          "internalType": "uint256",
          "name": "_feePercent",
          "type": "uint256"
        }
      ],
      "stateMutability": "nonpayable",
      "type": "constructor"
    },
    {
      "inputs": [],
      "name": "ReentrancyGuardReentrantCall",
      "type": "error"
    },
    {
      "anonymous": false,
      "inputs": [
        {
          "indexed": true,
          "internalType": "uint256",
          "name": "itemId",
          "type": "uint256"
        },
        {
          "indexed": true,
          "internalType": "address",
          "name": "bidder",
          "type": "address"
        },
        {
          "indexed": false,
          "internalType": "uint256",
          "name": "amount",
          "type": "uint256"
        }
      ],
      "name": "AuctionBid",
      "type": "event"
    },
    {
      "anonymous": false,
      "inputs": [
        {
          "indexed": false,
          "internalType": "uint256",
          "name": "itemId",
          "type": "uint256"
        },
        {
          "indexed": true,
          "internalType": "address",
          "name": "nft",
          "type": "address"
        },
        {
          "indexed": false,
          "internalType": "uint256",
          "name": "tokenId",
          "type": "uint256"
        },
        {
          "indexed": false,
          "internalType": "uint256",
          "name": "price",
          "type": "uint256"
        },
        {
          "indexed": true,
          "internalType": "address",
          "name": "seller",
          "type": "address"
        },
        {
          "indexed": true,
          "internalType": "address",
          "name": "buyer",
          "type": "address"
        }
      ],
      "name": "Bought",
      "type": "event"
    },
    {
      "anonymous": false,
      "inputs": [
        {
          "indexed": false,
          "internalType": "uint256",
          "name": "itemId",
          "type": "uint256"
        },
        {
          "indexed": true,
          "internalType": "address",
          "name": "nft",
          "type": "address"
        },
        {
          "indexed": false,
          "internalType": "uint256",
          "name": "tokenId",
          "type": "uint256"
        },
        {
          "indexed": true,
          "internalType": "address",
          "name": "seller",
          "type": "address"
        }
      ],
      "name": "Cancelled",
      "type": "event"
    },
    {
      "anonymous": false,
      "inputs": [
        {
          "indexed": false,
          "internalType": "uint256",
          "name": "itemId",
          "type": "uint256"
        },
        {
          "indexed": true,
          "internalType": "address",
          "name": "nft",
          "type": "address"
        },
        {
          "indexed": false,
          "internalType": "uint256",
          "name": "tokenId",
          "type": "uint256"
        },
        {
          "indexed": false,
          "internalType": "uint256",
          "name": "price",
          "type": "uint256"
        },
        {
          "indexed": true,
          "internalType": "address",
          "name": "seller",
          "type": "address"
        }
      ],
      "name": "Offered",
      "type": "event"
    },
    {
      "inputs": [
        {
          "internalType": "uint256",
          "name": "_itemId",
          "type": "uint256"
        }
      ],
      "name": "cancelItem",
      "outputs": [],
      "stateMutability": "nonpayable",
      "type": "function"
    },
    {
      "inputs": [],
      "name": "feeAccount",
      "outputs": [
        {
          "internalType": "address payable",
          "name": "",
          "type": "address"
        }
      ],
      "stateMutability": "view",
      "type": "function"
    },
    {
      "inputs": [],
      "name": "feePercent",
      "outputs": [
        {
          "internalType": "uint256",
          "name": "",
          "type": "uint256"
        }
      ],
      "stateMutability": "view",
      "type": "function"
    },
    {
      "inputs": [
        {
          "internalType": "uint256",
          "name": "_itemId",
          "type": "uint256"
        }
      ],
      "name": "finalizeAuction",
      "outputs": [],
      "stateMutability": "nonpayable",
      "type": "function"
    },
    {
      "inputs": [
        {
          "internalType": "uint256",
          "name": "_itemId",
          "type": "uint256"
        }
      ],
      "name": "getTotalPrice",
      "outputs": [
        {
          "internalType": "uint256",
          "name": "",
          "type": "uint256"
        }
      ],
      "stateMutability": "view",
      "type": "function"
    },
    {
      "inputs": [],
      "name": "itemCount",
      "outputs": [
        {
          "internalType": "uint256",
          "name": "",
          "type": "uint256"
        }
      ],
      "stateMutability": "view",
      "type": "function"
    },
    {
      "inputs": [
        {
          "internalType": "uint256",
          "name": "",
          "type": "uint256"
        }
      ],
      "name": "items",
      "outputs": [
        {
          "internalType": "uint256",
          "name": "itemId",
          "type": "uint256"
        },
        {
          "internalType": "contract IERC721",
          "name": "nft",
          "type": "address"
        },
        {
          "internalType": "uint256",
          "name": "tokenId",
          "type": "uint256"
        },
        {
          "internalType": "uint256",
          "name": "price",
          "type": "uint256"
        },
        {
          "internalType": "address payable",
          "name": "seller",
          "type": "address"
        },
        {
          "internalType": "bool",
          "name": "sold",
          "type": "bool"
        },
        {
          "internalType": "bool",
          "name": "isAuction",
          "type": "bool"
        },
        {
          "internalType": "uint256",
          "name": "endTime",
          "type": "uint256"
        },
        {
          "internalType": "address",
          "name": "highestBidder",
          "type": "address"
        },
        {
          "internalType": "uint256",
          "name": "highestBid",
          "type": "uint256"
        }
      ],
      "stateMutability": "view",
      "type": "function"
    },
    {
      "inputs": [
        {
          "internalType": "contract IERC721",
          "name": "_nft",
          "type": "address"
        },
        {
          "internalType": "uint256",
          "name": "_tokenId",
          "type": "uint256"
        },
        {
          "internalType": "uint256",
          "name": "_startPrice",
          "type": "uint256"
        },
        {
          "internalType": "uint256",
          "name": "_duration",
          "type": "uint256"
        }
      ],
      "name": "makeAuctionItem",
      "outputs": [],
      "stateMutability": "nonpayable",
      "type": "function"
    },
    {
      "inputs": [
        {
          "internalType": "contract IERC721",
          "name": "_nft",
          "type": "address"
        },
        {
          "internalType": "uint256",
          "name": "_tokenId",
          "type": "uint256"
        },
        {
          "internalType": "uint256",
          "name": "_price",
          "type": "uint256"
        }
      ],
      "name": "makeItem",
      "outputs": [],
      "stateMutability": "nonpayable",
      "type": "function"
    },
    {
      "inputs": [
        {
          "internalType": "uint256",
          "name": "_itemId",
          "type": "uint256"
        }
      ],
      "name": "placeBid",
      "outputs": [],
      "stateMutability": "payable",
      "type": "function"
    },
    {
      "inputs": [
        {
          "internalType": "uint256",
          "name": "_itemId",
          "type": "uint256"
        }
      ],
      "name": "purchaseItem",
      "outputs": [],
      "stateMutability": "payable",
      "type": "function"
    }
  ],
  "bytecode": "0x60c060405234801561001057600080fd5b5060405161251238038061251283398181016040528101906100329190610185565b6001600081905550600073ffffffffffffffffffffffffffffffffffffffff168273ffffffffffffffffffffffffffffffffffffffff16036100a9576040517f08c379a00000000000000000000000000000000000000000000000000000000081526004016100a090610222565b60405180910390fd5b8173ffffffffffffffffffffffffffffffffffffffff1660808173ffffffffffffffffffffffffffffffffffffffff16815250508060a081815250505050610242565b600080fd5b600073ffffffffffffffffffffffffffffffffffffffff82169050919050565b600061011c826100f1565b9050919050565b61012c81610111565b811461013757600080fd5b50565b60008151905061014981610123565b92915050565b6000819050919050565b6101628161014f565b811461016d57600080fd5b50565b60008151905061017f81610159565b92915050565b6000806040838503121561019c5761019b6100ec565b5b60006101aa8582860161013a565b92505060206101bb85828601610170565b9150509250929050565b600082825260208201905092915050565b7f496e76616c696420666565206163636f756e7400000000000000000000000000600082015250565b600061020c6013836101c5565b9150610217826101d6565b602082019050919050565b6000602082019050818103600083015261023b816101ff565b9050919050565b60805160a05161228f61028360003960008181610550015281816108b1015261115401526000818161052601528181610a91015261120a015261228f6000f3fe60806040526004361061009c5760003560e01c8063bfb231d211610064578063bfb231d214610167578063ca7dd375146101ad578063d38ea5bf146101ea578063d58846ee14610206578063e80838631461022f578063fa00afc7146102585761009c565b806351563f8e146100a157806365e17c9d146100ca5780636bfb0d01146100f55780637fd6f15c146101205780639979ef451461014b575b600080fd5b3480156100ad57600080fd5b506100c860048036038101906100c391906117c0565b610281565b005b3480156100d657600080fd5b506100df610524565b6040516100ec919061182e565b60405180910390f35b34801561010157600080fd5b5061010a610548565b6040516101179190611858565b60405180910390f35b34801561012c57600080fd5b5061013561054e565b6040516101429190611858565b60405180910390f35b610165600480360381019061016091906117c0565b610572565b005b34801561017357600080fd5b5061018e600480360381019061018991906117c0565b6107dd565b6040516101a49a9998979695949392919061190e565b60405180910390f35b3480156101b957600080fd5b506101d460048036038101906101cf91906117c0565b6108ab565b6040516101e19190611858565b60405180910390f35b61020460048036038101906101ff91906117c0565b61090e565b005b34801561021257600080fd5b5061022d600480360381019061022891906119e8565b610c96565b005b34801561023b57600080fd5b50610256600480360381019061025191906117c0565b611022565b005b34801561026457600080fd5b5061027f600480360381019061027a9190611a4f565b6113f8565b005b610289611735565b60006002600083815260200190815260200160002090506000821180156102b257506001548211155b6102f1576040517f08c379a00000000000000000000000000000000000000000000000000000000081526004016102e890611aff565b60405180910390fd5b3373ffffffffffffffffffffffffffffffffffffffff168160040160009054906101000a900473ffffffffffffffffffffffffffffffffffffffff1673ffffffffffffffffffffffffffffffffffffffff1614610383576040517f08c379a000000000000000000000000000000000000000000000000000000000815260040161037a90611b6b565b60405180910390fd5b8060040160149054906101000a900460ff16156103d5576040517f08c379a00000000000000000000000000000000000000000000000000000000081526004016103cc90611bd7565b60405180910390fd5b60018160040160146101000a81548160ff0219169083151502179055508060010160009054906101000a900473ffffffffffffffffffffffffffffffffffffffff1673ffffffffffffffffffffffffffffffffffffffff166323b872dd303384600201546040518463ffffffff1660e01b815260040161045793929190611bf7565b600060405180830381600087803b15801561047157600080fd5b505af1158015610485573d6000803e3d6000fd5b505050503373ffffffffffffffffffffffffffffffffffffffff168160010160009054906101000a900473ffffffffffffffffffffffffffffffffffffffff1673ffffffffffffffffffffffffffffffffffffffff167fd4aa65612aeb3d5fd82c9fcc38a4516d1cef8a78aec4e93858049695fad791ec848460020154604051610510929190611c2e565b60405180910390a35061052161177b565b50565b7f000000000000000000000000000000000000000000000000000000000000000081565b60015481565b7f000000000000000000000000000000000000000000000000000000000000000081565b61057a611735565b60006002600083815260200190815260200160002090508060040160159054906101000a900460ff166105e2576040517f08c379a00000000000000000000000000000000000000000000000000000000081526004016105d990611ca3565b60405180910390fd5b80600501544210610628576040517f08c379a000000000000000000000000000000000000000000000000000000000815260040161061f90611d0f565b60405180910390fd5b8060070154341161066e576040517f08c379a000000000000000000000000000000000000000000000000000000000815260040161066590611d7b565b60405180910390fd5b600073ffffffffffffffffffffffffffffffffffffffff168160060160009054906101000a900473ffffffffffffffffffffffffffffffffffffffff1673ffffffffffffffffffffffffffffffffffffffff1614610736578060060160009054906101000a900473ffffffffffffffffffffffffffffffffffffffff1673ffffffffffffffffffffffffffffffffffffffff166108fc82600701549081150290604051600060405180830381858888f19350505050158015610734573d6000803e3d6000fd5b505b338160060160006101000a81548173ffffffffffffffffffffffffffffffffffffffff021916908373ffffffffffffffffffffffffffffffffffffffff1602179055503481600701819055503373ffffffffffffffffffffffffffffffffffffffff16827fb8d756f2d1da4663767eb4d559780ace84f2f65a421a60ddcb47e8b2e5d2fd26346040516107c99190611858565b60405180910390a3506107da61177b565b50565b60026020528060005260406000206000915090508060000154908060010160009054906101000a900473ffffffffffffffffffffffffffffffffffffffff16908060020154908060030154908060040160009054906101000a900473ffffffffffffffffffffffffffffffffffffffff16908060040160149054906101000a900460ff16908060040160159054906101000a900460ff16908060050154908060060160009054906101000a900473ffffffffffffffffffffffffffffffffffffffff1690806007015490508a565b600060647f000000000000000000000000000000000000000000000000000000000000000060646108dc9190611dca565b60026000858152602001908152602001600020600301546108fd9190611dfe565b6109079190611e6f565b9050919050565b610916611735565b6000610921826108ab565b9050600060026000848152602001908152602001600020905060008311801561094c57506001548311155b61098b576040517f08c379a000000000000000000000000000000000000000000000000000000000815260040161098290611aff565b60405180910390fd5b813410156109ce576040517f08c379a00000000000000000000000000000000000000000000000000000000081526004016109c590611f12565b60405180910390fd5b8060040160149054906101000a900460ff1615610a20576040517f08c379a0000000000000000000000000000000000000000000000000000000008152600401610a1790611f7e565b60405180910390fd5b8060040160009054906101000a900473ffffffffffffffffffffffffffffffffffffffff1673ffffffffffffffffffffffffffffffffffffffff166108fc82600301549081150290604051600060405180830381858888f19350505050158015610a8e573d6000803e3d6000fd5b507f000000000000000000000000000000000000000000000000000000000000000073ffffffffffffffffffffffffffffffffffffffff166108fc826003015484610ad99190611f9e565b9081150290604051600060405180830381858888f19350505050158015610b04573d6000803e3d6000fd5b5060018160040160146101000a81548160ff0219169083151502179055508060010160009054906101000a900473ffffffffffffffffffffffffffffffffffffffff1673ffffffffffffffffffffffffffffffffffffffff166323b872dd303384600201546040518463ffffffff1660e01b8152600401610b8793929190611bf7565b600060405180830381600087803b158015610ba157600080fd5b505af1158015610bb5573d6000803e3d6000fd5b505050503373ffffffffffffffffffffffffffffffffffffffff168160040160009054906101000a900473ffffffffffffffffffffffffffffffffffffffff1673ffffffffffffffffffffffffffffffffffffffff168260010160009054906101000a900473ffffffffffffffffffffffffffffffffffffffff1673ffffffffffffffffffffffffffffffffffffffff167f8b4c9c8a607d67b321582dd8461041b1dc2ceeca70c8b7f37f8e02095cf2e76d8685600201548660030154604051610c8193929190611fd2565b60405180910390a45050610c9361177b565b50565b610c9e611735565b60008211610ce1576040517f08c379a0000000000000000000000000000000000000000000000000000000008152600401610cd890612055565b60405180910390fd5b60008111610d24576040517f08c379a0000000000000000000000000000000000000000000000000000000008152600401610d1b906120c1565b60405180910390fd5b60016000815480929190610d37906120e1565b91905055508373ffffffffffffffffffffffffffffffffffffffff166323b872dd3330866040518463ffffffff1660e01b8152600401610d7993929190611bf7565b600060405180830381600087803b158015610d9357600080fd5b505af1158015610da7573d6000803e3d6000fd5b5050505060405180610140016040528060015481526020018573ffffffffffffffffffffffffffffffffffffffff1681526020018481526020018381526020013373ffffffffffffffffffffffffffffffffffffffff1681526020016000151581526020016001151581526020018242610e219190611dca565b8152602001600073ffffffffffffffffffffffffffffffffffffffff16815260200160008152506002600060015481526020019081526020016000206000820151816000015560208201518160010160006101000a81548173ffffffffffffffffffffffffffffffffffffffff021916908373ffffffffffffffffffffffffffffffffffffffff160217905550604082015181600201556060820151816003015560808201518160040160006101000a81548173ffffffffffffffffffffffffffffffffffffffff021916908373ffffffffffffffffffffffffffffffffffffffff16021790555060a08201518160040160146101000a81548160ff02191690831515021790555060c08201518160040160156101000a81548160ff02191690831515021790555060e082015181600501556101008201518160060160006101000a81548173ffffffffffffffffffffffffffffffffffffffff021916908373ffffffffffffffffffffffffffffffffffffffff16021790555061012082015181600701559050503373ffffffffffffffffffffffffffffffffffffffff168473ffffffffffffffffffffffffffffffffffffffff167f655a0cf9c8db81512be9a76dc1c5ae5380b8816ce6ad659cd61b715e2999d59a600154868660405161100c93929190611fd2565b60405180910390a361101c61177b565b50505050565b61102a611735565b60006002600083815260200190815260200160002090508060040160159054906101000a900460ff16611092576040517f08c379a000000000000000000000000000000000000000000000000000000000815260040161108990611ca3565b60405180910390fd5b80600501544210156110d9576040517f08c379a00000000000000000000000000000000000000000000000000000000081526004016110d090612175565b60405180910390fd5b60018160040160146101000a81548160ff021916908315150217905550600073ffffffffffffffffffffffffffffffffffffffff168160060160009054906101000a900473ffffffffffffffffffffffffffffffffffffffff1673ffffffffffffffffffffffffffffffffffffffff161461133057600060647f000000000000000000000000000000000000000000000000000000000000000083600701546111829190611dfe565b61118c9190611e6f565b90508160040160009054906101000a900473ffffffffffffffffffffffffffffffffffffffff1673ffffffffffffffffffffffffffffffffffffffff166108fc8284600701546111dc9190611f9e565b9081150290604051600060405180830381858888f19350505050158015611207573d6000803e3d6000fd5b507f000000000000000000000000000000000000000000000000000000000000000073ffffffffffffffffffffffffffffffffffffffff166108fc829081150290604051600060405180830381858888f1935050505015801561126e573d6000803e3d6000fd5b508160010160009054906101000a900473ffffffffffffffffffffffffffffffffffffffff1673ffffffffffffffffffffffffffffffffffffffff166323b872dd308460060160009054906101000a900473ffffffffffffffffffffffffffffffffffffffff1685600201546040518463ffffffff1660e01b81526004016112f893929190611bf7565b600060405180830381600087803b15801561131257600080fd5b505af1158015611326573d6000803e3d6000fd5b50505050506113ec565b8060010160009054906101000a900473ffffffffffffffffffffffffffffffffffffffff1673ffffffffffffffffffffffffffffffffffffffff166323b872dd308360040160009054906101000a900473ffffffffffffffffffffffffffffffffffffffff1684600201546040518463ffffffff1660e01b81526004016113b9939291906121b6565b600060405180830381600087803b1580156113d357600080fd5b505af11580156113e7573d6000803e3d6000fd5b505050505b506113f561177b565b50565b611400611735565b60008111611443576040517f08c379a000000000000000000000000000000000000000000000000000000000815260040161143a90612239565b60405180910390fd5b60016000815480929190611456906120e1565b91905055508273ffffffffffffffffffffffffffffffffffffffff166323b872dd3330856040518463ffffffff1660e01b815260040161149893929190611bf7565b600060405180830381600087803b1580156114b257600080fd5b505af11580156114c6573d6000803e3d6000fd5b5050505060405180610140016040528060015481526020018473ffffffffffffffffffffffffffffffffffffffff1681526020018381526020018281526020013373ffffffffffffffffffffffffffffffffffffffff168152602001600015158152602001600015158152602001428152602001600073ffffffffffffffffffffffffffffffffffffffff16815260200160008152506002600060015481526020019081526020016000206000820151816000015560208201518160010160006101000a81548173ffffffffffffffffffffffffffffffffffffffff021916908373ffffffffffffffffffffffffffffffffffffffff160217905550604082015181600201556060820151816003015560808201518160040160006101000a81548173ffffffffffffffffffffffffffffffffffffffff021916908373ffffffffffffffffffffffffffffffffffffffff16021790555060a08201518160040160146101000a81548160ff02191690831515021790555060c08201518160040160156101000a81548160ff02191690831515021790555060e082015181600501556101008201518160060160006101000a81548173ffffffffffffffffffffffffffffffffffffffff021916908373ffffffffffffffffffffffffffffffffffffffff16021790555061012082015181600701559050503373ffffffffffffffffffffffffffffffffffffffff168373ffffffffffffffffffffffffffffffffffffffff167f655a0cf9c8db81512be9a76dc1c5ae5380b8816ce6ad659cd61b715e2999d59a600154858560405161172093929190611fd2565b60405180910390a361173061177b565b505050565b600260005403611771576040517f3ee5aeb500000000000000000000000000000000000000000000000000000000815260040160405180910390fd5b6002600081905550565b6001600081905550565b600080fd5b6000819050919050565b61179d8161178a565b81146117a857600080fd5b50565b6000813590506117ba81611794565b92915050565b6000602082840312156117d6576117d5611785565b5b60006117e4848285016117ab565b91505092915050565b600073ffffffffffffffffffffffffffffffffffffffff82169050919050565b6000611818826117ed565b9050919050565b6118288161180d565b82525050565b6000602082019050611843600083018461181f565b92915050565b6118528161178a565b82525050565b600060208201905061186d6000830184611849565b92915050565b6000819050919050565b600061189861189361188e846117ed565b611873565b6117ed565b9050919050565b60006118aa8261187d565b9050919050565b60006118bc8261189f565b9050919050565b6118cc816118b1565b82525050565b60008115159050919050565b6118e7816118d2565b82525050565b60006118f8826117ed565b9050919050565b611908816118ed565b82525050565b600061014082019050611924600083018d611849565b611931602083018c6118c3565b61193e604083018b611849565b61194b606083018a611849565b611958608083018961181f565b61196560a08301886118de565b61197260c08301876118de565b61197f60e0830186611849565b61198d6101008301856118ff565b61199b610120830184611849565b9b9a5050505050505050505050565b60006119b5826118ed565b9050919050565b6119c5816119aa565b81146119d057600080fd5b50565b6000813590506119e2816119bc565b92915050565b60008060008060808587031215611a0257611a01611785565b5b6000611a10878288016119d3565b9450506020611a21878288016117ab565b9350506040611a32878288016117ab565b9250506060611a43878288016117ab565b91505092959194509250565b600080600060608486031215611a6857611a67611785565b5b6000611a76868287016119d3565b9350506020611a87868287016117ab565b9250506040611a98868287016117ab565b9150509250925092565b600082825260208201905092915050565b7f6974656d20646f65736e27742065786973740000000000000000000000000000600082015250565b6000611ae9601283611aa2565b9150611af482611ab3565b602082019050919050565b60006020820190508181036000830152611b1881611adc565b9050919050565b7f6e6f74206974656d2073656c6c65720000000000000000000000000000000000600082015250565b6000611b55600f83611aa2565b9150611b6082611b1f565b602082019050919050565b60006020820190508181036000830152611b8481611b48565b9050919050565b7f6974656d20616c726561647920736f6c64206f722063616e63656c6c65640000600082015250565b6000611bc1601e83611aa2565b9150611bcc82611b8b565b602082019050919050565b60006020820190508181036000830152611bf081611bb4565b9050919050565b6000606082019050611c0c60008301866118ff565b611c1960208301856118ff565b611c266040830184611849565b949350505050565b6000604082019050611c436000830185611849565b611c506020830184611849565b9392505050565b7f4e6f742061756374696f6e206974656d00000000000000000000000000000000600082015250565b6000611c8d601083611aa2565b9150611c9882611c57565b602082019050919050565b60006020820190508181036000830152611cbc81611c80565b9050919050565b7f41756374696f6e20656e64656400000000000000000000000000000000000000600082015250565b6000611cf9600d83611aa2565b9150611d0482611cc3565b602082019050919050565b60006020820190508181036000830152611d2881611cec565b9050919050565b7f42696420746f6f206c6f77000000000000000000000000000000000000000000600082015250565b6000611d65600b83611aa2565b9150611d7082611d2f565b602082019050919050565b60006020820190508181036000830152611d9481611d58565b9050919050565b7f4e487b7100000000000000000000000000000000000000000000000000000000600052601160045260246000fd5b6000611dd58261178a565b9150611de08361178a565b9250828201905080821115611df857611df7611d9b565b5b92915050565b6000611e098261178a565b9150611e148361178a565b9250828202611e228161178a565b91508282048414831517611e3957611e38611d9b565b5b5092915050565b7f4e487b7100000000000000000000000000000000000000000000000000000000600052601260045260246000fd5b6000611e7a8261178a565b9150611e858361178a565b925082611e9557611e94611e40565b5b828204905092915050565b7f6e6f7420656e6f75676820657468657220746f20636f766572206974656d207060008201527f7269636520616e64206d61726b65742066656500000000000000000000000000602082015250565b6000611efc603383611aa2565b9150611f0782611ea0565b604082019050919050565b60006020820190508181036000830152611f2b81611eef565b9050919050565b7f6974656d20616c726561647920736f6c64000000000000000000000000000000600082015250565b6000611f68601183611aa2565b9150611f7382611f32565b602082019050919050565b60006020820190508181036000830152611f9781611f5b565b9050919050565b6000611fa98261178a565b9150611fb48361178a565b9250828203905081811115611fcc57611fcb611d9b565b5b92915050565b6000606082019050611fe76000830186611849565b611ff46020830185611849565b6120016040830184611849565b949350505050565b7f5072696365206d757374206265203e2030000000000000000000000000000000600082015250565b600061203f601183611aa2565b915061204a82612009565b602082019050919050565b6000602082019050818103600083015261206e81612032565b9050919050565b7f4475726174696f6e206d757374206265203e2030000000000000000000000000600082015250565b60006120ab601483611aa2565b91506120b682612075565b602082019050919050565b600060208201905081810360008301526120da8161209e565b9050919050565b60006120ec8261178a565b91507fffffffffffffffffffffffffffffffffffffffffffffffffffffffffffffffff820361211e5761211d611d9b565b5b600182019050919050565b7f41756374696f6e206e6f7420656e646564000000000000000000000000000000600082015250565b600061215f601183611aa2565b915061216a82612129565b602082019050919050565b6000602082019050818103600083015261218e81612152565b9050919050565b60006121a08261189f565b9050919050565b6121b081612195565b82525050565b60006060820190506121cb60008301866118ff565b6121d860208301856121a7565b6121e56040830184611849565b949350505050565b7f5072696365206d7573742062652067726561746572207468616e207a65726f00600082015250565b6000612223601f83611aa2565b915061222e826121ed565b602082019050919050565b6000602082019050818103600083015261225281612216565b905091905056fea2646970667358221220a4126a89489869686d7a890cff07024061a2edbb8248ada86797750179c7ae7f64736f6c634300081c0033",
  "linkReferences": {},
  "deployedLinkReferences": {}
}